:100000000C943C000C9459000C9459000C94590029
:100010000C9459000C9459000C9459000C945900FC
:100020000C9459000C9459000C9459000C945900EC
:100030000C9459000C9459000C9459000C945900DC
:100040000C9459000C9459000C9459000C945900CC
:100050000C9459000C9459000C9459000C945900BC
:100060000C9459000C945900A3049704B604C204DC
:10007000BA0562057405970511241FBECFEFD8E0BD
:10008000DEBFCDBF13E0A0E0B1E0E0E1F3E102C0EC
:1000900005900D92A233B107D9F724E0A2E3B3E0B3
:1000A00001C01D92A137B207E1F70E9475040C94BC
:1000B00086090C94000080FF04C09BB190629BB93C
:1000C00003C09BB19F7D9BB981FF04C09BB190642D
:1000D0009BB903C09BB19F7B9BB982FF04C09BB1BE
:1000E00090689BB903C09BB19F779BB983FF04C005
:1000F0008BB184608BB903C08BB18B7F8BB98BB113
:1001000080618BB987EC90E00197F1F700C00000A7
:100110008BB18F7E8BB90895CF93C82F8BB1877F1A
:100120008BB900008C2F82958F700E945B008C2F02
:100130008F700E945B008FE99FE00197F1F700C08C
:100140000000CF910895CF938AB188608AB98AB1AF
:1001500080618AB98BB18F7E8BB98BB1877F8BB968
:100160008AB180628AB98AB180648AB98AB18068AA
:100170008AB98AB184608AB92FEF89EF90E0215063
:1001800080409040E1F700C00000C0E00AC083E07A
:100190000E945B008FE19EE40197F1F700C0000030
:1001A000CF5FC330A0F383E30E948C0082E30E9400
:1001B0008C0088E20E948C008CE00E948C0086E01B
:1001C0000E948C0081E00E948C008FED9EE20197DE
:1001D000F1F700C00000CF910895CF93C82F8BB1E5
:1001E00088608BB900008C2F82958F700E945B0015
:1001F0008C2F8F700E945B008FE99FE00197F1F7D1
:1002000000C00000CF910895CF93DF93EC0103C0AD
:100210000E94ED00219688818111FACFDF91CF9164
:1002200008950F931F93CF93DF93CDB7DEB72A972F
:100230000FB6F894DEBF0FBECDBF9F938F9380E2C1
:1002400091E09F938F938E010F5F1F4F1F930F932A
:100250000E949C06C8010E9404010F900F900F900D
:100260000F900F900F902A960FB6F894DEBF0FBE36
:10027000CDBFDF91CF911F910F910895623059F05A
:1002800018F4613031F00DC0633039F0643039F06A
:1002900008C0815007C0815C05C08D5E03C08D5AC7
:1002A00001C0815080680E948C00089581E00E9406
:1002B0008C008FE39FE10197F1F700C000000895E3
:1002C0000E94560161E081E00E943E0183E291E0DC
:1002D0000E94040162E081E00E943E0188E391E017
:1002E0000E94040163E081E00E943E018DE491E000
:1002F0000E94040164E081E00E943E0188E391E0F5
:100300000E94040108950E94560161E081E00E946C
:100310003E0183E291E00E94040162E081E00E94DC
:100320003E0188E391E00E94040163E081E00E94C5
:100330003E0182E691E00E94040164E081E00E94B7
:100340003E0188E391E00E94040108950E94560155
:1003500061E081E00E943E0183E291E00E9404019D
:1003600062E081E00E943E0188E391E00E94040186
:1003700063E081E00E943E0187E791E00E94040172
:1003800064E081E00E943E0188E391E00E94040164
:1003900008950E94560161E081E00E943E018CE8D0
:1003A00091E00E94040162E081E00E943E0181EA46
:1003B00091E00E94040163E081E00E943E0186EB2F
:1003C00091E00E94040164E081E00E943E018BEC18
:1003D00091E00E94040108950E94560161E081E0CD
:1003E0000E943E0180EE91E00E94040162E081E003
:1003F0000E943E0185EF91E00E94040163E081E0EC
:100400000E943E018AE092E00E94040164E081E0E3
:100410000E943E018FE192E00E94040108950E9433
:10042000560161E081E00E943E0184E392E00E9477
:10043000040162E081E00E943E0185EF91E00E94AC
:10044000040163E081E00E943E018AE092E00E94A4
:10045000040164E081E00E943E018FE192E00E948D
:100460000401089584B1816084B984B1826084B943
:1004700084B1846084B984B1886084B987B18E7F87
:1004800087B987B18D7F87B987B18B7F87B987B1EE
:10049000877F87B988B1816088B988B1826088B95F
:1004A00088B1846088B988B1886088B90895309926
:1004B00009C0309BFECF319BFCCF329BFACF339BE0
:1004C000F8CF31C080916E038F5F80936E033199B6
:1004D00009C0309BFECF319BFCCF329BFACF339BC0
:1004E000F8CF23C08F5F80936E03329909C0309B91
:1004F000FECF319BFCCF329BFACF339BF8CF17C096
:100500008F5F80936E03339909C0309BFECF319B80
:10051000FCCF329BFACF339BF8CF0BC08F5F809319
:100520006E0380E0089581E0089581E0089581E000
:10053000089581E0089595B1916095B995B1926063
:1005400095B995B1946095B995B1986095B9823097
:1005500069F018F4813031F00895833059F0843017
:1005600069F0089585B18E7F85B9089585B18D7F35
:1005700085B9089585B18B7F85B9089585B1877F49
:1005800085B90895CF93DF9310926E03C1E0D0E058
:100590000FC08C2F0E949B020E945702882339F0C3
:1005A000E0916E03F0E0E05FFE4F808105C0219690
:1005B000C530D10574F380E0DF91CF91089580E0DC
:1005C00090E00CC0FC01EE0FFF1FE80FF91FEE0FCB
:1005D000FF1FE85CFC4F1182108201968930910563
:1005E0008CF310923503109234030895E8E3F3E09E
:1005F00084E090E09383828362E070E0758364839B
:100600004BE050E0518740877387628722E130E0FA
:1006100037872687718B608B958B848B63E070E0C6
:10062000778B668B538F428F758F648F31A320A396
:1006300073A362A397A386A391A780A755A744A7F6
:1006400097A786A733AB22AB95AB84AB0895EF9207
:10065000FF920F931F93CF93DF9300E010E028C029
:10066000E801CC0FDD1FC00FD11FCC0FDD1FC85C10
:10067000DC4F6C818A810E943E01888199810F2E16
:10068000FAE0EF2EF12CF02DB7010E946E06CB019F
:100690000E9411016C818A818F5F0E943E018881D6
:1006A0009981B7010E946E060E9411010F5F1F4FD2
:1006B00009301105ACF28091340390913503FC01AF
:1006C000EE0FFF1FDF01A80FB91FAA0FBB1FA85C09
:1006D000BC4F14966C911497FD01828182500E9448
:1006E0003E0189E492E00E940401DF91CF911F91C5
:1006F0000F91FF90EF9008950E94560161E081E014
:100700000E943E018BE492E00E94040162E081E0DD
:100710000E943E0180E692E00E94040163E081E0D5
:100720000E943E0185E792E00E94040164E081E0BE
:100730000E943E018AE892E00E9404010E94270381
:1007400008950E94560161E081E00E943E018FE918
:1007500092E00E94040162E081E00E943E0180E696
:1007600092E00E94040163E081E00E943E0185E77F
:1007700092E00E94040164E081E00E943E018AE868
:1007800092E00E9404010E94270308950E945601EE
:1007900061E081E00E943E0184EB92E00E9404014E
:1007A00062E081E00E943E0189EC92E00E94040137
:1007B00063E081E00E943E0184EB92E00E9404012C
:1007C00064E081E00E943E0184EB92E00E9404011B
:1007D00008950E94560161E081E00E943E0184EB91
:1007E00092E00E94040162E081E00E943E018EEDF1
:1007F00092E00E94040163E081E00E943E0184EBEC
:1008000092E00E94040164E081E00E943E0184EBDA
:1008100092E00E94040108950E94560161E081E087
:100820000E943E0184EB92E00E94040162E081E0BC
:100830000E943E0183EF92E00E94040163E081E0A8
:100840000E943E0184EB92E00E94040164E081E09A
:100850000E943E0184EB92E00E94040108950E94F0
:10086000560161E081E00E943E0184EB92E00E942B
:10087000040162E081E00E943E0188E093E00E9472
:10088000040163E081E00E943E0184EB92E00E945B
:10089000040164E081E00E943E0184EB92E00E944A
:1008A000040108950E94560161E081E00E943E012A
:1008B00084EB92E00E94040162E081E00E943E012C
:1008C0008CE193E00E94040163E081E00E943E011C
:1008D00084EB92E00E94040164E081E00E943E010A
:1008E00084EB92E00E94040108950E94A3000E94FC
:1008F000F6020E943202E0913303F0E0EE0FFF1F98
:10090000E050FF4F0190F081E02D09950E94C20256
:100910008823E1F3E09133034E2F50E04830510536
:1009200008F0C7C1FA01EC5CFF4F0C9482068033DB
:1009300019F08E3329F0BDC183E080933303B9C130
:1009400010923303B6C18C3349F08E3359F08033A3
:1009500009F0AFC185E080933303ABC181E08093A0
:100960003303A7C182E080933303A3C1803319F01E
:100970008C3329F09EC184E0809333039AC1109296
:10098000330397C1813469F030F48C3369F18E33CD
:1009900009F43FC052C08334A9F040F0843401F11F
:1009A0004CC00E94E9030E94DF0283C10E94C6037B
:1009B0002FEF83EC99E0215080409040E1F700C098
:1009C000000077C10E940C040E94DF022FEF83EC2D
:1009D00099E0215080409040E1F700C0000069C1DB
:1009E00081E08093330365C1109232038091340318
:1009F00090913503009739F488E090E090933503A7
:100A00008093340356C10197909335038093340348
:100A100050C1109232038091340390913503883095
:100A2000910529F4109235031092340342C10196C6
:100A300090933503809334033CC190E0C09790932A
:100A4000370380933603209132032223D1F0209183
:100A5000340330913503F901EE0FFF1FE20FF31F4E
:100A6000EE0FFF1FE85CFC4F40815181840F951F02
:100A7000918380832F5F3F4F30933503209334035E
:100A80001AC02091340330913503F901EE0FFF1F96
:100A9000AC01440F551F880F991F880F991F880FAD
:100AA000991F840F951FE20FF31FEE0FFF1FE85CE5
:100AB000FC4F918380839091320381E0892780935A
:100AC0003203F7C0823449F0843459F0813409F09C
:100AD000F0C086E080933303ECC087E0809333035B
:100AE000E8C010923303E5C0823489F08434D9F031
:100AF000813409F0DEC00E942F042FEF83EC99E0CF
:100B0000215080409040E1F700C00000D2C00E9418
:100B10002F042FEF83EC99E0215080409040E1F7C3
:100B200000C00000C6C085E080933303C2C0823499
:100B300089F08434D9F0813409F0BBC00E9452049A
:100B40002FEF83EC99E0215080409040E1F700C006
:100B50000000AFC00E9452042FEF83EC99E02150B7
:100B600080409040E1F700C00000A3C085E0809382
:100B700033039FC0813469F030F48C3369F18E33D4
:100B800009F43FC052C08334A9F040F0843401F12D
:100B90004CC00E94E9030E94DF028BC00E94C60382
:100BA0002FEF83EC99E0215080409040E1F700C0A6
:100BB00000007FC00E940C040E94DF022FEF83EC34
:100BC00099E0215080409040E1F700C0000071C0E2
:100BD00082E0809333036DC010923203809134031E
:100BE00090913503009739F488E090E090933503B5
:100BF000809334035EC00197909335038093340350
:100C000058C010923203809134039091350388309C
:100C1000910529F410923503109234034AC00196CD
:100C2000909335038093340344C090E0C097909331
:100C3000370380933603209132032223D1F0209191
:100C4000340330913503F901EE0FFF1FE20FF31F5C
:100C5000EE0FFF1FE85CFC4F40815181840F951F10
:100C6000918380832F5F3F4F30933503209334036C
:100C70001AC02091340330913503F901EE0FFF1FA4
:100C8000AC01440F551F880F991F880F991F880FBB
:100C9000991F840F951FE20FF31FEE0FFF1FE85CF3
:100CA000FC4F918380839091320381E08927809368
:100CB00032032FEF82E597E0215080409040E1F72A
:100CC00000C00000E0913303F0E0EE0FFF1FE050A2
:100CD000FF4F0190F081E02D099518CE97FB072E6C
:100CE00016F4009407D077FD09D00E94880607FC0F
:100CF00005D03EF4909581959F4F0895709561952C
:100D00007F4F0895EE0FFF1F0590F491E02D099499
:100D1000AA1BBB1B51E107C0AA1FBB1FA617B70721
:100D200010F0A61BB70B881F991F5A95A9F780953D
:100D30009095BC01CD010895AEE0B0E0E2EAF6E0A6
:100D40000C945D090D891E8986E08C831A830983C2
:100D50008FEF9FE79E838D83AE01475E5F4F6F8964
:100D6000788DCE0101960E94BE06EF81F885E00FD6
:100D7000F11F10822E96E4E00C947909ABE0B0E00C
:100D8000E4ECF6E00C944F096C017B018A01FC0154
:100D900017821682838181FFCCC1CE0101963C016E
:100DA000F6019381F70193FD859193FF81917F0176
:100DB000882309F4BAC1853239F493FD859193FFF4
:100DC00081917F01853229F4B60190E00E94B50837
:100DD000E7CF912C212C312CFFE1F315D8F08B3289
:100DE00079F038F4803279F08332A1F4232D206138
:100DF0001DC08D3261F0803369F4232D216016C04F
:100E0000832D8260382EE32DE4603E2E2AC0F32D20
:100E1000F8601DC037FC2DC020ED280F2A3040F0AF
:100E20008E32B9F436FC81C1232D2064322E19C0D4
:100E300036FE06C08AE0989E200D1124922E11C025
:100E4000EAE02E9E200D1124222EF32DF0623F2E7B
:100E500008C08C3621F4832D8068382E02C0883675
:100E600041F4F70193FD859193FF81917F018111F9
:100E7000B3CF982F9F7D9554933028F40C5F1F4F6C
:100E80009FE399830DC0833631F0833771F083354A
:100E900009F059C021C0F801808189830E5F1F4F7E
:100EA00088248394912C530113C02801F2E04F0E43
:100EB000511CF801A080B18036FE03C0692D70E09E
:100EC00002C06FEF7FEFC5010E94AA084C018201AA
:100ED000F32DFF773F2E16C0280122E0420E511C51
:100EE000F801A080B18036FE03C0692D70E002C019
:100EF0006FEF7FEFC5010E949F084C01F32DF06852
:100F00003F2E820133FC1BC0822D90E0881699068B
:100F1000B0F4B60180E290E00E94B5082A94F4CFC4
:100F2000F50137FC859137FE81915F01B60190E0B4
:100F30000E94B50821102A9421E0821A9108811498
:100F4000910471F7E8C0843611F0893641F5F80153
:100F500037FE07C060817181828193810C5F1F4FD2
:100F600008C060817181072E000C880B990B0E5F01
:100F70001F4FF32DFF763F2E97FF09C09095809568
:100F8000709561957F4F8F4F9F4FF0683F2E2AE0FD
:100F900030E0A3010E94F108882E861845C08537ED
:100FA00031F4232D2F7EB22E2AE030E025C0932D80
:100FB000997FB92E8F36C1F018F4883579F0B5C015
:100FC000803719F0883721F0B0C0E92FE061BE2EDC
:100FD000B4FE0DC0FB2DF460BF2E09C034FE0AC064
:100FE000292F2660B22E06C028E030E005C020E19F
:100FF00030E002C020E132E0F801B7FE07C06081B6
:101000007181828193810C5F1F4F06C06081718165
:1010100080E090E00E5F1F4FA3010E94F108882E30
:101020008618FB2DFF773F2E36FE0DC0232D2E7F19
:10103000A22E891458F434FE0BC032FC09C0832D53
:101040008E7EA82E05C0B82CA32C03C0B82C01C0DE
:10105000B92CA4FE0FC0FE01E80DF11D8081803384
:1010600021F49A2D997EA92E09C0A2FE06C0B39440
:10107000B39404C08A2D867809F0B394A3FC11C000
:10108000A0FE06C0B21488F4280C922C9B180EC047
:10109000B21460F4B60180E290E00E94B508B39407
:1010A000F7CFB21418F42B1802C0982C212CA4FEF0
:1010B00010C0B60180E390E00E94B508A2FE17C000
:1010C000A1FC03C088E790E002C088E590E0B6018B
:1010D0000CC08A2D867859F0A1FE02C08BE201C0B7
:1010E00080E2A7FC8DE2B60190E00E94B508891469
:1010F00038F4B60180E390E00E94B5089A94F7CFE7
:101100008A94F301E80DF11D8081B60190E00E9400
:10111000B5088110F5CF222009F442CEB60180E255
:1011200090E00E94B5082A94F6CFF6018681978157
:1011300002C08FEF9FEF2B96E2E10C946B09FC014C
:101140000590615070400110D8F7809590958E0FF2
:101150009F1F0895FC016150704001900110D8F765
:10116000809590958E0F9F1F08950F931F93CF9397
:10117000DF93FB01238121FD03C08FEF9FEF2CC084
:1011800022FF16C0468157812481358142175307BB
:1011900044F4A081B1819D012F5F3F4F31832083B3
:1011A0008C93268137812F5F3F4F3783268314C06E
:1011B0008B01EC01FB010084F185E02D0995892B61
:1011C000E1F6D80116968D919C9117970196179686
:1011D0009C938E931697CE01DF91CF911F910F9123
:1011E0000895FA01AA27283051F1203181F1E894BD
:1011F0006F936E7F6E5F7F4F8F4F9F4FAF4FB1E00A
:101200003ED0B4E03CD0670F781F891F9A1FA11D04
:10121000680F791F8A1F911DA11D6A0F711D811D05
:10122000911DA11D20D009F468943F912AE0269FCA
:1012300011243019305D3193DEF6CF010895462F29
:101240004770405D4193B3E00FD0C9F7F6CF462F0A
:101250004F70405D4A3318F0495D31FD4052419373
:1012600002D0A9F7EACFB4E0A69597958795779530
:101270006795BA95C9F700976105710508959B01B7
:10128000AC010A2E06945795479537952795BA9540
:10129000C9F7620F731F841F951FA01D08952F9219
:1012A0003F924F925F926F927F928F929F92AF92F6
:1012B000BF92CF92DF92EF92FF920F931F93CF9343
:1012C000DF93CDB7DEB7CA1BDB0B0FB6F894DEBFDA
:1012D0000FBECDBF09942A88398848885F846E8400
:1012E0007D848C849B84AA84B984C884DF80EE804A
:1012F000FD800C811B81AA81B981CE0FD11D0FB653
:10130000F894DEBF0FBECDBFED010895F894FFCF76
:1013100083016001A6017C03A103C901EC010F0256
:101320003132334134353642373839433C303E442C
:1013300025640031323A30302020202020204261C4
:10134000742E2031303025002D2D2D2D2D2D2D2DBD
:101350002D2D2D2D2D2D2D2D2D2D2D2D007C2020B5
:10136000202020204167726567617220203E202086
:101370007C007C203C2020426C7565746F6F746823
:1013800020203E20207C007C20203C202020517505
:10139000697461722020202020207C004274682E15
:1013A000202020202020204261742E203130302542
:1013B000007C20202041202D2056696E63756C61D1
:1013C000722020207C007C20202042202D204D6F88
:1013D0006469666963617220207C007C202020445F
:1013E000202D20566F6C76657220202020207C00F6
:1013F00042746820202020202020202056696E631F
:10140000756C6172007C20412D2052657369737484
:10141000656E6369617320207C007C20422D20541E
:101420006F726E696C6C6F7320202020207C007CB2
:1014300020442D20566F6C766572202020202020BD
:1014400020207C0042746820202020202020204D75
:101450006F6469666963617200580041677265670D
:101460006172202020204261742E2031303025000E
:101470007C313A3030207C20323A3030207C2033AE
:101480003A30307C007C343A3030207C20353A30A1
:1014900030207C20363A30307C007C373A303020A7
:1014A0007C20383A3030207C20393A30307C005172
:1014B000756974617220202020204261742E2031D1
:1014C000303025007C2020202020202020202020BB
:1014D000202020202020207C007C20202020202074
:1014E00053746F636B2E2E20202020207C007C20E4
:1014F00020202020456E7669616E646F2E2E20209C
:10150000207C007C202020202056616369616E646D
:101510006F2E2E2020207C007C20202056696E63B8
:10152000756C616E646F2E2E20207C007C20202044
:10153000204D6F646966696361722E2E2020207CC5
:021540000000A9
:00000001FF
