S00C0000504943322E737265630A
S11300000C9434000C9451000C9451000C94510045
S11300100C9451000C9451000C9451000C94510018
S11300200C9451000C9451000C9451000C94510008
S11300300C9451000C9451000C9451000C945100F8
S11300400C9451000C9451000C9451000C945100E8
S11300500C9451000C9451000C9451000C945100D8
S11300600C9451000C94510011241FBECFEFD8E022
S1130070DEBFCDBF13E0A0E0B1E0E2E7F0E102C0F3
S113008005900D92A830B107D9F723E0A8E0B3E0BA
S113009001C01D92A534B207E1F70E9423040C9419
S11300A037080C94000080FF04C09BB190629BB998
S11300B003C09BB19F7D9BB981FF04C09BB1906439
S11300C09BB903C09BB19F7B9BB982FF04C09BB1CA
S11300D090689BB903C09BB19F779BB983FF04C011
S11300E08BB184608BB903C08BB18B7F8BB98BB11F
S11300F080618BB987EC90E00197F1F700C00000B4
S11301008BB18F7E8BB90895CF93C82F8BB1877F26
S11301108BB900008C2F82958F700E9453008C2F16
S11301208F700E9453008FE99FE00197F1F700C0A0
S11301300000CF910895CF938AB188608AB98AB1BB
S113014080618AB98BB18F7E8BB98BB1877F8BB974
S11301508AB180628AB98AB180648AB98AB18068B6
S11301608AB98AB184608AB92FEF89EF90E021506F
S113017080409040E1F700C00000C0E00AC083E086
S11301800E9453008FE19EE40197F1F700C0000044
S1130190CF5FC330A0F383E30E94840082E30E9414
S11301A0840088E20E9484008CE00E94840086E03F
S11301B00E94840081E00E9484008FED9EE20197FA
S11301C0F1F700C00000CF910895CF93C82F8BB1F1
S11301D088608BB900008C2F82958F700E94530029
S11301E08C2F8F700E9453008FE99FE00197F1F7E5
S11301F000C00000CF910895CF93DF93EC0103C0BA
S11302000E94E500219688818111FACFDF91CF9178
S113021008950F931F93CF93DF93CDB7DEB72A973B
S11302200FB6F894DEBF0FBECDBF9F938F9380E2CD
S113023091E09F938F938E010F5F1F4F1F930F9336
S11302400E944D05C8010E94FC000F900F900F9072
S11302500F900F900F902A960FB6F894DEBF0FBE42
S1130260CDBFDF91CF911F910F910895623059F066
S113027018F4613031F00DC0633039F0643039F076
S113028008C0815007C0815C05C08D5E03C08D5AD3
S113029001C0815080680E948400089581E00E941A
S11302A084008FE39FE10197F1F700C000000895F7
S11302B00E944E0161E081E00E94360183E291E0F8
S11302C00E94FC0062E081E00E94360188E391E034
S11302D00E94FC0063E081E00E9436018DE491E01D
S11302E00E94FC0064E081E00E94360188E391E012
S11302F00E94FC0008950E944E0161E081E00E948A
S1130300360183E291E00E94FC0062E081E00E94F9
S1130310360188E391E00E94FC0063E081E00E94E2
S1130320360182E691E00E94FC0064E081E00E94D4
S1130330360188E391E00E94FC0008950E944E017A
S113034061E081E00E94360183E291E00E94FC00BA
S113035062E081E00E94360188E391E00E94FC00A3
S113036063E081E00E94360187E791E00E94FC008F
S113037064E081E00E94360188E391E00E94FC0081
S113038008950E944E0161E081E00E9436018CE8EC
S113039091E00E94FC0062E081E00E94360181EA63
S11303A091E00E94FC0063E081E00E94360186EB4C
S11303B091E00E94FC0064E081E00E9436018BEC35
S11303C091E00E94FC0008950E944E0161E081E0EA
S11303D00E94360180EE91E00E94FC0062E081E020
S11303E00E94360185EF91E00E94FC0063E081E009
S11303F00E9436018AE092E00E94FC0064E081E001
S11304000E9436018FE192E00E94FC0008950E9450
S11304104E0161E081E00E94360184E392E00E9493
S1130420FC0062E081E00E94360185EF91E00E94C9
S1130430FC0063E081E00E9436018AE092E00E94C1
S1130440FC0064E081E00E9436018FE192E00E94AA
S1130450FC00089584B1816084B984B1826084B958
S113046084B1846084B984B1886084B987B18E7F93
S113047087B987B18D7F87B987B18B7F87B987B1FA
S1130480877F87B988B1816088B988B1826088B96B
S113049088B1846088B988B1886088B90895309932
S11304A009C0309BFECF319BFCCF329BFACF339BEC
S11304B0F8CF31C0809144038F5F80934403319916
S11304C009C0309BFECF319BFCCF329BFACF339BCC
S11304D0F8CF23C08F5F80934403329909C0309BC7
S11304E0FECF319BFCCF329BFACF339BF8CF17C0A2
S11304F08F5F80934403339909C0309BFECF319BB7
S1130500FCCF329BFACF339BF8CF0BC08F5F809325
S1130510440380E0089581E0089581E0089581E036
S1130520089581E0089595B1916095B995B192606F
S113053095B995B1946095B995B1986095B98230A3
S113054069F018F4813031F00895833059F0843023
S113055069F0089585B18E7F85B9089585B18D7F41
S113056085B9089585B18B7F85B9089585B1877F55
S113057085B90895CF93DF9310924403C1E0D0E08E
S11305800FC08C2F0E9493020E944F02882339F0DF
S1130590E0914403F0E0E05FFE4F808105C02196C6
S11305A0C530D10574F380E0DF91CF91089580E0E8
S11305B090E00CC0FC01EE0FFF1FE80FF91FEE0FD7
S11305C0FF1FE25FFC4F1182108201968930910572
S11305D08CF30895EEE0F3E084E090E0938382836B
S11305E062E070E0758364834BE050E0518740879C
S11305F07387628722E130E037872687718B608BAF
S1130600958B848B63E070E0778B668B538F428F7E
S1130610758F648F31A320A373A362A397A386A3CA
S113062091A780A755A744A797A786A733AB22AB6A
S113063095AB84AB0895EF92FF920F931F93CF93E2
S1130640DF9300E010E028C0E801CC0FDD1FC00FED
S1130650D11FCC0FDD1FC25FDC4F6C818A810E94E9
S11306603601888199810F2EFAE0EF2EF12CF02DBE
S1130670B7010E942505CB010E9409016C818A8182
S11306808F5F0E94360188819981B7010E942505F8
S11306900E9409010F5F1F4F09301105ACF28091D0
S11306A00A0390910B03FC01EE0FFF1FDF01A80F5B
S11306B0B91FAA0FBB1FA25FBC4F14966C9114976D
S11306C0FD01828182500E94360189E492E00E94F9
S11306D0FC00DF91CF911F910F91FF90EF9008954F
S11306E00E944E0161E081E00E9436018BE492E0B9
S11306F00E94FC0062E081E00E94360180E692E004
S11307000E94FC0063E081E00E94360185E792E0EC
S11307100E94FC0064E081E00E9436018AE892E0D5
S11307200E94FC000E941B0308950E944E0161E098
S113073081E00E9436018FE992E00E94FC0062E0B1
S113074081E00E94360180E692E00E94FC0063E0B2
S113075081E00E94360185E792E00E94FC0064E09B
S113076081E00E9436018AE892E00E94FC000E9427
S11307701B0308950E944E0161E081E00E9436014E
S113078084EB92E00E94FC0062E081E00E9436016A
S113079089EC92E00E94FC0063E081E00E94360153
S11307A084EB92E00E94FC0064E081E00E94360148
S11307B084EB92E00E94FC0008950E944E0161E0E7
S11307C081E00E94360184EB92E00E94FC0062E02A
S11307D081E00E9436018EED92E00E94FC0063E00D
S11307E081E00E94360184EB92E00E94FC0064E008
S11307F081E00E94360184EB92E00E94FC0008959F
S11308000E944E0161E081E00E94360184EB92E097
S11308100E94FC0062E081E00E94360183EF92E0D6
S11308200E94FC0063E081E00E94360184EB92E0C8
S11308300E94FC0064E081E00E94360184EB92E0B7
S11308400E94FC0008950E949B000E94EA020E94FC
S11308502A0283E080930903E0910601F0910701E5
S113086009950E94BA028823E1F39091090391301B
S113087031F088F0923011F1933061F1D1C08033BE
S113088019F08E3329F0CCC083E080930903C8C0EB
S113089010920903C5C08C3349F08E3359F080336C
S11308A009F0BEC085E080930903BAC081E080935B
S11308B00903B6C082E080930903B2C0803319F003
S11308C08C3329F0ADC084E080930903A9C0109251
S11308D00903A6C0813469F030F48C33A1F18E335E
S11308E009F446C059C08334E1F078F0843439F116
S11308F053C00E94DD032FEF83EC99E02150804028
S11309009040E1F700C000008BC00E94BA032FEFB3
S113091083EC99E0215080409040E1F700C0000052
S11309207FC00E9400040E94D7022FEF83EC99E05D
S1130930215080409040E1F700C0000071C081E088
S1130940809309036DC01092080380910A0390916B
S11309500B03009739F488E090E090930B038093A5
S11309600A035EC0019790930B0380930A0358C057
S11309701092080380910A0390910B03883091052B
S113098029F410920B0310920A034AC00196909323
S11309900B0380930A0344C090E0C09790930D0327
S11309A080930C03209108032223D1F020910A03A1
S11309B030910B03F901EE0FFF1FE20FF31FEE0F4F
S11309C0FF1FE25FFC4F40815181840F951F91838B
S11309D080832F5F3F4F30930B0320930A031AC089
S11309E020910A0330910B03F901EE0FFF1FAC01B4
S11309F0440F551F880F991F880F991F880F991F3F
S1130A00840F951FE20FF31FEE0FFF1FE25FFC4FF1
S1130A10918380839091080381E089278093080360
S1130A202FEF82E597E0215080409040E1F700C02D
S1130A300000E0910903F0E0EE0FFF1FE050FF4FCC
S1130A400190F081E02D09950CCF97FB072E16F449
S1130A50009407D077FD09D00E94390507FC05D022
S1130A603EF4909581959F4F0895709561957F4FC1
S1130A700895AA1BBB1B51E107C0AA1FBB1FA617E1
S1130A80B70710F0A61BB70B881F991F5A95A9F733
S1130A9080959095BC01CD010895AEE0B0E0E3E50A
S1130AA0F5E00C940E080D891E8986E08C831A8368
S1130AB009838FEF9FE79E838D83AE01475E5F4F6F
S1130AC06F89788DCE0101960E946F05EF81F885BC
S1130AD0E00FF11F10822E96E4E00C942A08ABE09C
S1130AE0B0E0E5E7F5E00C9400086C017B018A01B5
S1130AF0FC0117821682838181FFCCC1CE0101964D
S1130B003C01F6019381F70193FD859193FF819157
S1130B107F01882309F4BAC1853239F493FD8591A4
S1130B2093FF81917F01853229F4B60190E00E9400
S1130B306607E7CF912C212C312CFFE1F315D8F077
S1130B408B3279F038F4803279F08332A1F4232D9A
S1130B5020611DC08D3261F0803369F4232D216042
S1130B6016C0832D8260382EE32DE4603E2E2AC009
S1130B70F32DF8601DC037FC2DC020ED280F2A305E
S1130B8040F08E32B9F436FC81C1232D2064322E1C
S1130B9019C036FE06C08AE0989E200D1124922EBC
S1130BA011C0EAE02E9E200D1124222EF32DF062B6
S1130BB03F2E08C08C3621F4832D8068382E02C065
S1130BC0883641F4F70193FD859193FF81917F016C
S1130BD08111B3CF982F9F7D9554933028F40C5FE7
S1130BE01F4F9FE399830DC0833631F0833771F033
S1130BF0833509F059C021C0F801808189830E5FD3
S1130C001F4F88248394912C530113C02801F2E0D0
S1130C104F0E511CF801A080B18036FE03C0692D2F
S1130C2070E002C06FEF7FEFC5010E945B074C01CB
S1130C308201F32DFF773F2E16C0280122E0420ED9
S1130C40511CF801A080B18036FE03C0692D70E00C
S1130C5002C06FEF7FEFC5010E9450074C01F32DD6
S1130C60F0683F2E820133FC1BC0822D90E0881671
S1130C709906B0F4B60180E290E00E9466072A94D7
S1130C80F4CFF50137FC859137FE81915F01B60100
S1130C9090E00E94660721102A9421E0821A9108AC
S1130CA08114910471F7E8C0843611F0893641F556
S1130CB0F80137FE07C060817181828193810C5FE6
S1130CC01F4F08C060817181072E000C880B990B9F
S1130CD00E5F1F4FF32DFF763F2E97FF09C09095AF
S1130CE08095709561957F4F8F4F9F4FF0683F2E91
S1130CF02AE030E0A3010E94A207882E861845C08E
S1130D00853731F4232D2F7EB22E2AE030E025C022
S1130D10932D997FB92E8F36C1F018F4883579F068
S1130D20B5C0803719F0883721F0B0C0E92FE061F1
S1130D30BE2EB4FE0DC0FB2DF460BF2E09C034FEE0
S1130D400AC0292F2660B22E06C028E030E005C074
S1130D5020E130E002C020E132E0F801B7FE07C034
S1130D6060817181828193810C5F1F4F06C0608115
S1130D70718180E090E00E5F1F4FA3010E94A207E3
S1130D80882E8618FB2DFF773F2E36FE0DC0232DAF
S1130D902E7FA22E891458F434FE0BC032FC09C0F5
S1130DA0832D8E7EA82E05C0B82CA32C03C0B82C8E
S1130DB001C0B92CA4FE0FC0FE01E80DF11D808115
S1130DC0803321F49A2D997EA92E09C0A2FE06C073
S1130DD0B394B39404C08A2D867809F0B394A3FC29
S1130DE011C0A0FE06C0B21488F4280C922C9B18E3
S1130DF00EC0B21460F4B60180E290E00E9466076F
S1130E00B394F7CFB21418F42B1802C0982C212CE9
S1130E10A4FE10C0B60180E390E00E946607A2FE23
S1130E2017C0A1FC03C088E790E002C088E590E009
S1130E30B6010CC08A2D867859F0A1FE02C08BE25F
S1130E4001C080E2A7FC8DE2B60190E00E94660733
S1130E50891438F4B60180E390E00E9466079A94FE
S1130E60F7CF8A94F301E80DF11D8081B60190E07B
S1130E700E9466078110F5CF222009F442CEB60104
S1130E8080E290E00E9466072A94F6CFF6018681FC
S1130E90978102C08FEF9FEF2B96E2E10C941C0820
S1130EA0FC010590615070400110D8F78095909531
S1130EB08E0F9F1F0895FC01615070400190011036
S1130EC0D8F7809590958E0F9F1F08950F931F93C9
S1130ED0CF93DF93FB01238121FD03C08FEF9FEFAD
S1130EE02CC022FF16C046815781248135814217C8
S1130EF0530744F4A081B1819D012F5F3F4F31839B
S1130F0020838C93268137812F5F3F4F378326833D
S1130F1014C08B01EC01FB010084F185E02D0995DF
S1130F20892BE1F6D80116968D919C91179701961D
S1130F3017969C938E931697CE01DF91CF911F91B4
S1130F400F910895FA01AA27283051F1203181F137
S1130F50E8946F936E7F6E5F7F4F8F4F9F4FAF4FBD
S1130F60B1E03ED0B4E03CD0670F781F891F9A1FD0
S1130F70A11D680F791F8A1F911DA11D6A0F711D84
S1130F80811D911DA11D20D009F468943F912AE090
S1130F90269F11243019305D3193DEF6CF01089578
S1130FA0462F4770405D4193B3E00FD0C9F7F6CFA9
S1130FB0462F4F70405D4A3318F0495D31FD405271
S1130FC0419302D0A9F7EACFB4E0A6959795879507
S1130FD077956795BA95C9F70097610571050895E6
S1130FE09B01AC010A2E0694579547953795279592
S1130FF0BA95C9F7620F731F841F951FA01D08952A
S11310002F923F924F925F926F927F928F929F9214
S1131010AF92BF92CF92DF92EF92FF920F931F9302
S1131020CF93DF93CDB7DEB7CA1BDB0B0FB6F894B3
S1131030DEBF0FBECDBF09942A88398848885F84F3
S11310406E847D848C849B84AA84B984C884DF8064
S1131050EE80FD800C811B81AA81B981CE0FD11D48
S11310600FB6F894DEBF0FBECDBFED010895F8941E
S1051070FFCFAC
S11310727B0158019E0170039503C101E40107023B
S11310823132334134353642373839433C303E44C9
S113109225640031323A3030202020202020426161
S11310A2742E2031303025002D2D2D2D2D2D2D2D5A
S11310B22D2D2D2D2D2D2D2D2D2D2D2D007C202052
S11310C2202020204167726567617220203E202023
S11310D27C007C203C2020426C7565746F6F7468C0
S11310E220203E20207C007C20203C2020205175A2
S11310F2697461722020202020207C004274682EB2
S1131102202020202020204261742E2031303025DE
S1131112007C20202041202D2056696E63756C616D
S1131122722020207C007C20202042202D204D6F24
S11311326469666963617220207C007C20202044FB
S1131142202D20566F6C76657220202020207C0092
S113115242746820202020202020202056696E63BB
S1131162756C6172007C20412D2052657369737421
S1131172656E6369617320207C007C20422D2054BB
S11311826F726E696C6C6F7320202020207C007C4F
S113119220442D20566F6C7665722020202020205A
S11311A220207C0042746820202020202020204D12
S11311B26F646966696361720058004167726567AA
S11311C26172202020204261742E203130302500AB
S11311D27C313A3030207C20323A3030207C20334B
S11311E23A30307C007C343A3030207C20353A303E
S11311F230207C20363A30307C007C373A30302044
S11312027C20383A3030207C20393A30307C00510E
S1131212756974617220202020204261742E20316D
S1131222303025007C202020202020202020202057
S1131232202020202020207C007C20202020202010
S113124253746F636B2E2E20202020207C007C2080
S113125220202020456E7669616E646F2E2E202038
S1131262207C007C202020202056616369616E640A
S10B12726F2E2E2020207C00C9
S9030000FC
