S00C0000504943322E737265630A
S11300000C9434000C9451000C9451000C94510045
S11300100C9451000C9451000C9451000C94510018
S11300200C9451000C9451000C9451000C94510008
S11300300C9451000C9451000C9451000C945100F8
S11300400C9451000C9451000C9451000C945100E8
S11300500C9451000C9451000C9451000C945100D8
S11300600C9451000C94510011241FBECFEFD8E022
S1130070DEBFCDBF12E0A0E0B1E0EEEFF0E102C0E0
S113008005900D92A83FB107D9F723E0A8EFB2E09D
S113009001C01D92A233B207E1F70E9424040C941C
S11300A07D080C94000080FF04C09BB190629BB952
S11300B003C09BB19F7D9BB981FF04C09BB1906439
S11300C09BB903C09BB19F7B9BB982FF04C09BB1CA
S11300D090689BB903C09BB19F779BB983FF04C011
S11300E08BB184608BB903C08BB18B7F8BB98BB11F
S11300F080618BB987EC90E00197F1F700C00000B4
S11301008BB18F7E8BB90895CF93C82F8BB1877F26
S11301108BB900008C2F82958F700E9453008C2F16
S11301208F700E9453008FE99FE00197F1F700C0A0
S11301300000CF910895CF938AB188608AB98AB1BB
S113014080618AB98BB18F7E8BB98BB1877F8BB974
S11301508AB180628AB98AB180648AB98AB18068B6
S11301608AB98AB184608AB92FEF89EF90E021506F
S113017080409040E1F700C00000C0E00AC083E086
S11301800E9453008FE19EE40197F1F700C0000044
S1130190CF5FC330A0F383E30E94840082E30E9414
S11301A0840088E20E9484008CE00E94840086E03F
S11301B00E94840081E00E9484008FED9EE20197FA
S11301C0F1F700C00000CF910895CF93C82F8BB1F1
S11301D088608BB900008C2F82958F700E94530029
S11301E08C2F8F700E9453008FE99FE00197F1F7E5
S11301F000C00000CF910895CF93DF93EC0103C0BA
S11302000E94E500219688818111FACFDF91CF9178
S113021008950F931F93CF93DF93CDB7DEB72A973B
S11302200FB6F894DEBF0FBECDBF9F938F9381E2CC
S113023091E09F938F938E010F5F1F4F1F930F9336
S11302400E949305C8010E94FC000F900F900F902C
S11302500F900F900F902A960FB6F894DEBF0FBE42
S1130260CDBFDF91CF911F910F910895623059F066
S113027018F4613031F00DC0633039F0643039F076
S113028008C0815007C0815C05C08D5E03C08D5AD3
S113029001C0815080680E948400089581E00E941A
S11302A084008FE39FE10197F1F700C000000895F7
S11302B00E944E0161E081E00E94360184E291E0F7
S11302C00E94FC0062E081E00E94360189E391E033
S11302D00E94FC0063E081E00E9436018EE491E01C
S11302E00E94FC0064E081E00E94360189E391E011
S11302F00E94FC0008950E944E0161E081E00E948A
S1130300360184E291E00E94FC0062E081E00E94F8
S1130310360189E391E00E94FC0063E081E00E94E1
S1130320360183E691E00E94FC0064E081E00E94D3
S1130330360189E391E00E94FC0008950E944E0179
S113034061E081E00E94360184E291E00E94FC00B9
S113035062E081E00E94360189E391E00E94FC00A2
S113036063E081E00E94360188E791E00E94FC008E
S113037064E081E00E94360189E391E00E94FC0080
S113038008950E944E0161E081E00E9436018DE8EB
S113039091E00E94FC0062E081E00E94360182EA62
S11303A091E00E94FC0063E081E00E94360187EB4B
S11303B091E00E94FC0064E081E00E9436018CEC34
S11303C091E00E94FC0008950E944E0161E081E0EA
S11303D00E94360181EE91E00E94FC0062E081E01F
S11303E00E94360186EF91E00E94FC0063E081E008
S11303F00E9436018BE092E00E94FC0064E081E000
S11304000E94360180E292E00E94FC0008950E945E
S11304104E0161E081E00E94360185E392E00E9492
S1130420FC0062E081E00E94360186EF91E00E94C8
S1130430FC0063E081E00E9436018BE092E00E94C0
S1130440FC0064E081E00E94360180E292E00E94B8
S1130450FC00089584B1816084B984B1826084B958
S113046084B1846084B984B1886084B987B18E7F93
S113047087B987B18D7F87B987B18B7F87B987B1FA
S1130480877F87B988B1816088B988B1826088B96B
S113049088B1846088B988B1886088B90895309932
S11304A009C0309BFECF319BFCCF329BFACF339BEC
S11304B0F8CF31C0809131038F5F8093310331993C
S11304C009C0309BFECF319BFCCF329BFACF339BCC
S11304D0F8CF23C08F5F80933103329909C0309BDA
S11304E0FECF319BFCCF329BFACF339BF8CF17C0A2
S11304F08F5F80933103339909C0309BFECF319BCA
S1130500FCCF329BFACF339BF8CF0BC08F5F809325
S1130510310380E0089581E0089581E0089581E049
S1130520089581E0089595B1916095B995B192606F
S113053095B995B1946095B995B1986095B98230A3
S113054069F018F4813031F014C0833059F08430EC
S113055069F00FC085B18E7F85B90BC085B18D7FE1
S113056085B907C085B18B7F85B903C085B1877F05
S113057085B9000008958FE39CE90197F1F700C065
S113058000001092310381E00E9493020E944F0206
S1130590882339F0E0913103F0E0EF5EFE4F808173
S11305A0089582E00E9493020E944F02882339F04A
S11305B0E0913103F0E0EF5EFE4F8081089583E027
S11305C00E9493020E944F02882339F0E091310384
S11305D0F0E0EF5EFE4F8081089584E00E94930274
S11305E00E944F02882331F0E0913103F0E0EF5E86
S11305F0FE4F8081089580E090E00CC0FC01EE0F76
S1130600FF1FE80FF91FEE0FFF1FE550FD4F11828A
S113061010820196893091058CF30895EBEFF2E096
S113062084E090E09383828362E070E07583648366
S11306304BE050E0518740877387628722E130E0C6
S113064037872687718B608B958B848B63E070E092
S1130650778B668B538F428F758F648F31A320A362
S113066073A362A397A386A391A780A755A744A7C2
S113067097A786A733AB22AB95AB84AB0895EF92D3
S1130680FF920F931F93CF93DF9300E010E028C0F5
S1130690E801CC0FDD1FC00FD11FCC0FDD1FC550EB
S11306A0DD4F6C818A810E943601888199810F2EE9
S11306B0FAE0EF2EF12CF02DB7010E946B05CB016F
S11306C00E9409016C818A818F5F0E9436018881B2
S11306D09981B7010E946B050E9409010F5F1F4FAA
S11306E009301105ACF28091F9029091FA02FC01F3
S11306F0EE0FFF1FDF01A80FB91FAA0FBB1FA550E4
S1130700BD4F14966C911497FD01828182500E9412
S113071036018AE492E00E94FC00DF91CF911F91A0
S11307200F91FF90EF9008950E944E0161E081E0E7
S11307300E9436018CE492E00E94FC0062E081E0B9
S11307400E94360181E692E00E94FC0063E081E0B1
S11307500E94360186E792E00E94FC0064E081E09A
S11307600E9436018BE892E00E94FC000E943F0345
S113077008950E944E0161E081E00E94360180EA02
S113078092E00E94FC0062E081E00E94360181E672
S113079092E00E94FC0063E081E00E94360186E75B
S11307A092E00E94FC0064E081E00E9436018BE844
S11307B092E00E94FC000E943F0308950E944E01B3
S11307C061E081E00E94360185EB92E00E94FC002A
S11307D062E081E00E9436018AEC92E00E94FC0013
S11307E063E081E00E94360185EB92E00E94FC0008
S11307F064E081E00E94360185EB92E00E94FC00F7
S113080008950E944E0161E081E00E94360185EB6B
S113081092E00E94FC0062E081E00E9436018FEDCC
S113082092E00E94FC0063E081E00E94360185EBC7
S113083092E00E94FC0064E081E00E94360185EBB6
S113084092E00E94FC0008950E942A020E949B00EC
S11308500E940E03E0911001F0E0EE0FFF1FE05044
S1130860FF4F0190F081E02D09950E94BB0288237F
S1130870E1F390911001923099F128F49923E9F071
S1130880913059F013C1953009F4E2C0963009F45F
S1130890F0C0933009F00AC12FC08E3339F484EFCD
S11308A092E00E94FC001092100100C1803309F014
S11308B0FDC083E080931001F9C08E3321F482E0FF
S11308C080931001F3C08C3321F481E080931001F4
S11308D0EDC0803309F0EAC085E080931001E6C0E2
S11308E08C3319F410921001E1C0803309F0DEC09A
S11308F084E080931001DAC0813489F40E940104F9
S11309002FEF83ED90E3215080409040E1F700C049
S113091000000E94FB0281E080931001C7C0823472
S113092061F40E94DE032FEF83ED90E321508040B9
S11309309040E1F700C00000B9C0833461F40E9424
S1130940FB022FEF83ED90E3215080409040E1F7CC
S113095000C00000ABC0843421F481E08093100116
S1130960A5C08C33B1F41092F8028091F9029091F1
S1130970FA021816190634F401979093FA02809338
S1130980F90294C088E090E09093FA028093F9020F
S11309908DC08E33A1F41092F8028091F9029091E7
S11309A0FA028830910534F401969093FA02809308
S11309B0F9027CC01092FA021092F90277C090E01A
S11309C0C0972091F802222311F12091F90230916D
S11309D0FA02F901EE0FFF1FE20FF31FEE0FFF1FE4
S11309E0E550FD4F40815181840F951F9183808391
S11309F0283031053CF42F5F3F4F3093FA022093A7
S1130A00F9021FC01092FA021092F9021AC0209142
S1130A10F9023091FA02AC01440F551F880F991F57
S1130A20880F991F880F991F840F951FF901EE0FE6
S1130A30FF1FE20FF31FEE0FFF1FE550FD4F9183E1
S1130A4080839091F80281E089278093F8022EC078
S1130A50813421F486E08093100128C0823421F48B
S1130A6087E08093100122C0843401F510921001B4
S1130A701DC0813451F42FEF83ED90E32150804069
S1130A809040E1F700C0000011C0823451F42FEF10
S1130A9083ED90E3215080409040E1F700C00000D6
S1130AA005C0843419F485E0809310012FEF82E5AA
S1130AB097E0215080409040E1F700C00000E091B1
S1130AC01001F0E0EE0FFF1FE050FF4F0190F081A6
S1130AD0E02D0995CACE97FB072E16F4009407D093
S1130AE077FD09D00E947F0507FC05D03EF4909560
S1130AF081959F4F0895709561957F4F0895AA1B26
S1130B00BB1B51E107C0AA1FBB1FA617B70710F0F4
S1130B10A61BB70B881F991F5A95A9F78095909526
S1130B20BC01CD010895AEE0B0E0E9E9F5E00C9434
S1130B3054080D891E8986E08C831A8309838FEFFC
S1130B409FE79E838D83AE01475E5F4F6F89788DEB
S1130B50CE0101960E94B505EF81F885E00FF11FE3
S1130B6010822E96E4E00C947008ABE0B0E0EBEB5E
S1130B70F5E00C9446086C017B018A01FC011782A4
S1130B801682838181FFCCC1CE0101963C01F6011E
S1130B909381F70193FD859193FF81917F018823D0
S1130BA009F4BAC1853239F493FD859193FF81919B
S1130BB07F01853229F4B60190E00E94AC07E7CFAB
S1130BC0912C212C312CFFE1F315D8F08B3279F0E4
S1130BD038F4803279F08332A1F4232D20611DC0D2
S1130BE08D3261F0803369F4232D216016C0832D8A
S1130BF08260382EE32DE4603E2E2AC0F32DF86087
S1130C001DC037FC2DC020ED280F2A3040F08E3255
S1130C10B9F436FC81C1232D2064322E19C036FE6E
S1130C2006C08AE0989E200D1124922E11C0EAE09D
S1130C302E9E200D1124222EF32DF0623F2E08C08B
S1130C408C3621F4832D8068382E02C0883641F416
S1130C50F70193FD859193FF81917F018111B3CFBA
S1130C60982F9F7D9554933028F40C5F1F4F9FE37A
S1130C7099830DC0833631F0833771F0833509F0E1
S1130C8059C021C0F801808189830E5F1F4F8824D9
S1130C908394912C530113C02801F2E04F0E511C90
S1130CA0F801A080B18036FE03C0692D70E002C057
S1130CB06FEF7FEFC5010E94A1074C018201F32D64
S1130CC0FF773F2E16C0280122E0420E511CF80186
S1130CD0A080B18036FE03C0692D70E002C06FEFC2
S1130CE07FEFC5010E9496074C01F32DF0683F2E5B
S1130CF0820133FC1BC0822D90E088169906B0F463
S1130D00B60180E290E00E94AC072A94F4CFF5018A
S1130D1037FC859137FE81915F01B60190E00E9416
S1130D20AC0721102A9421E0821A910881149104BD
S1130D3071F7E8C0843611F0893641F5F80137FEC1
S1130D4007C060817181828193810C5F1F4F08C04D
S1130D5060817181072E000C880B990B0E5F1F4F69
S1130D60F32DFF763F2E97FF09C0909580957095DF
S1130D7061957F4F8F4F9F4FF0683F2E2AE030E000
S1130D80A3010E94E807882E861845C0853731F4F0
S1130D90232D2F7EB22E2AE030E025C0932D997F9B
S1130DA0B92E8F36C1F018F4883579F0B5C0803784
S1130DB019F0883721F0B0C0E92FE061BE2EB4FEEF
S1130DC00DC0FB2DF460BF2E09C034FE0AC0292FCC
S1130DD02660B22E06C028E030E005C020E130E0F5
S1130DE002C020E132E0F801B7FE07C060817181E2
S1130DF0828193810C5F1F4F06C06081718180E006
S1130E0090E00E5F1F4FA3010E94E807882E86180A
S1130E10FB2DFF773F2E36FE0DC0232D2E7FA22EF5
S1130E20891458F434FE0BC032FC09C0832D8E7E25
S1130E30A82E05C0B82CA32C03C0B82C01C0B92C13
S1130E40A4FE0FC0FE01E80DF11D8081803321F462
S1130E509A2D997EA92E09C0A2FE06C0B394B3941C
S1130E6004C08A2D867809F0B394A3FC11C0A0FEB7
S1130E7006C0B21488F4280C922C9B180EC0B2142D
S1130E8060F4B60180E290E00E94AC07B394F7CF1F
S1130E90B21418F42B1802C0982C212CA4FE10C0F4
S1130EA0B60180E390E00E94AC07A2FE17C0A1FC4B
S1130EB003C088E790E002C088E590E0B6010CC06A
S1130EC08A2D867859F0A1FE02C08BE201C080E22F
S1130ED0A7FC8DE2B60190E00E94AC07891438F4B7
S1130EE0B60180E390E00E94AC079A94F7CF8A940D
S1130EF0F301E80DF11D8081B60190E00E94AC077A
S1130F008110F5CF222009F442CEB60180E290E0B0
S1130F100E94AC072A94F6CFF6018681978102C01D
S1130F208FEF9FEF2B96E2E10C946208FC01059091
S1130F30615070400110D8F7809590958E0F9F1FD7
S1130F400895FC016150704001900110D8F780951C
S1130F5090958E0F9F1F08950F931F93CF93DF9348
S1130F60FB01238121FD03C08FEF9FEF2CC022FFE3
S1130F7016C046815781248135814217530744F4B2
S1130F80A081B1819D012F5F3F4F318320838C93DA
S1130F90268137812F5F3F4F3783268314C08B010F
S1130FA0EC01FB010084F185E02D0995892BE1F624
S1130FB0D80116968D919C911797019617969C933C
S1130FC08E931697CE01DF91CF911F910F910895C3
S1130FD0FA01AA27283051F1203181F1E8946F9366
S1130FE06E7F6E5F7F4F8F4F9F4FAF4FB1E03ED00C
S1130FF0B4E03CD0670F781F891F9A1FA11D680FAA
S1131000791F8A1F911DA11D6A0F711D811D911DDC
S1131010A11D20D009F468943F912AE0269F112451
S11310203019305D3193DEF6CF010895462F4770B5
S1131030405D4193B3E00FD0C9F7F6CF462F4F7010
S1131040405D4A3318F0495D31FD4052419302D06E
S1131050A9F7EACFB4E0A695979587957795679514
S1131060BA95C9F700976105710508959B01AC0114
S11310700A2E06945795479537952795BA95C9F73B
S1131080620F731F841F951FA01D08952F923F9216
S11310904F925F926F927F928F929F92AF92BF9284
S11310A0CF92DF92EF92FF920F931F93CF93DF9330
S11310B0CDB7DEB7CA1BDB0B0FB6F894DEBF0FBE8D
S11310C0CDBF09942A88398848885F846E847D84DA
S11310D08C849B84AA84B984C884DF80EE80FD80DC
S11310E00C811B81AA81B981CE0FD11D0FB6F89452
S11110F0DEBF0FBECDBFED010895F894FFCF13
S11310FE7B0158019E019403B903C101E401070267
S113110E013132334134353642373839433C303E7F
S113111E4425640031323A303020202020202042F1
S113112E61742E2031303025002D2D2D2D2D2D2D99
S113113E2D2D2D2D2D2D2D2D2D2D2D2D2D007C20B8
S113114E20202020204167726567617220203E2096
S113115E207C007C203C2020426C7565746F6F747B
S113116E6820203E20207C007C20203C2020205122
S113117E75697461722020202020207C00427468DE
S113118E2E202020202020204261742E2031303049
S113119E25007C20202041202D2056696E63756C1D
S11311AE61722020207C007C20202042202D204DA6
S11311BE6F6469666963617220207C007C20202044
S11311CE44202D20566F6C76657220202020207CC2
S11311DE0042746820202020202020202056696E92
S11311EE63756C6172007C20412D205265736973A6
S11311FE74656E6369617320207C007C20422D200F
S113120E546F726E696C6C6F7320202020207C00EA
S113121E7C20442D20566F6C766572202020202071
S113122E2020207C004274682020202020202020B2
S113123E4D6F646966696361720058004167726537
S113124E676172202020204261742E2031303025B7
S113125E007C313A3030207C20323A3030207C20F1
S113126E333A30307C007C343A3030207C20353AAE
S113127E3030207C20363A30307C007C373A3030A7
S113128E207C20383A3030207C20393A30307C00B3
S113129E51756974617220202020204261742E20C1
S11312AE31303025007C20202020202020202020BA
S11312BE20202020202020207C007C202020202084
S11312CE2053746F636B2E2E20202020207C007CF4
S11312DE2020202020456E7669616E646F2E2E20AC
S10B12EE20207C004153440060
S9030000FC
